{
  "_format": "hh-sol-artifact-1",
  "contractName": "Marketplace",
  "sourceName": "contracts/Marketplace.sol",
  "abi": [
    {
      "inputs": [],
      "stateMutability": "nonpayable",
      "type": "constructor"
    },
    {
      "anonymous": false,
      "inputs": [
        {
          "indexed": true,
          "internalType": "uint256",
          "name": "marketItemId",
          "type": "uint256"
        },
        {
          "indexed": true,
          "internalType": "address",
          "name": "nftContract",
          "type": "address"
        },
        {
          "indexed": true,
          "internalType": "uint256",
          "name": "tokenId",
          "type": "uint256"
        },
        {
          "indexed": false,
          "internalType": "address",
          "name": "creator",
          "type": "address"
        },
        {
          "indexed": false,
          "internalType": "address",
          "name": "seller",
          "type": "address"
        },
        {
          "indexed": false,
          "internalType": "address",
          "name": "owner",
          "type": "address"
        },
        {
          "indexed": false,
          "internalType": "uint256",
          "name": "price",
          "type": "uint256"
        },
        {
          "indexed": false,
          "internalType": "string",
          "name": "name",
          "type": "string"
        },
        {
          "indexed": false,
          "internalType": "string",
          "name": "description",
          "type": "string"
        },
        {
          "indexed": false,
          "internalType": "bool",
          "name": "sold",
          "type": "bool"
        },
        {
          "indexed": false,
          "internalType": "bool",
          "name": "canceled",
          "type": "bool"
        }
      ],
      "name": "MarketItemCreated",
      "type": "event"
    },
    {
      "inputs": [
        {
          "internalType": "address",
          "name": "nftContractAddress",
          "type": "address"
        },
        {
          "internalType": "uint256",
          "name": "marketItemId",
          "type": "uint256"
        }
      ],
      "name": "cancelMarketItem",
      "outputs": [],
      "stateMutability": "payable",
      "type": "function"
    },
    {
      "inputs": [
        {
          "internalType": "address",
          "name": "nftContractAddress",
          "type": "address"
        },
        {
          "internalType": "address",
          "name": "erc20ContractAddress",
          "type": "address"
        },
        {
          "internalType": "uint256",
          "name": "feeAmount",
          "type": "uint256"
        },
        {
          "internalType": "uint256",
          "name": "tokenId",
          "type": "uint256"
        },
        {
          "internalType": "uint256",
          "name": "price",
          "type": "uint256"
        },
        {
          "internalType": "string",
          "name": "name",
          "type": "string"
        },
        {
          "internalType": "string",
          "name": "description",
          "type": "string"
        }
      ],
      "name": "createMarketItem",
      "outputs": [
        {
          "internalType": "uint256",
          "name": "",
          "type": "uint256"
        }
      ],
      "stateMutability": "payable",
      "type": "function"
    },
    {
      "inputs": [
        {
          "internalType": "address",
          "name": "nftContractAddress",
          "type": "address"
        },
        {
          "internalType": "address",
          "name": "erc20ContractAddress",
          "type": "address"
        },
        {
          "internalType": "uint256",
          "name": "marketItemId",
          "type": "uint256"
        }
      ],
      "name": "createMarketSale",
      "outputs": [],
      "stateMutability": "payable",
      "type": "function"
    },
    {
      "inputs": [],
      "name": "fetchAvailableMarketItems",
      "outputs": [
        {
          "components": [
            {
              "internalType": "uint256",
              "name": "marketItemId",
              "type": "uint256"
            },
            {
              "internalType": "address",
              "name": "nftContractAddress",
              "type": "address"
            },
            {
              "internalType": "uint256",
              "name": "tokenId",
              "type": "uint256"
            },
            {
              "internalType": "address payable",
              "name": "creator",
              "type": "address"
            },
            {
              "internalType": "address payable",
              "name": "seller",
              "type": "address"
            },
            {
              "internalType": "address payable",
              "name": "owner",
              "type": "address"
            },
            {
              "internalType": "uint256",
              "name": "price",
              "type": "uint256"
            },
            {
              "internalType": "string",
              "name": "name",
              "type": "string"
            },
            {
              "internalType": "string",
              "name": "description",
              "type": "string"
            },
            {
              "internalType": "bool",
              "name": "sold",
              "type": "bool"
            },
            {
              "internalType": "bool",
              "name": "canceled",
              "type": "bool"
            }
          ],
          "internalType": "struct Marketplace.MarketItem[]",
          "name": "",
          "type": "tuple[]"
        }
      ],
      "stateMutability": "view",
      "type": "function"
    },
    {
      "inputs": [
        {
          "internalType": "string",
          "name": "_addressProperty",
          "type": "string"
        }
      ],
      "name": "fetchMarketItemsByAddressProperty",
      "outputs": [
        {
          "components": [
            {
              "internalType": "uint256",
              "name": "marketItemId",
              "type": "uint256"
            },
            {
              "internalType": "address",
              "name": "nftContractAddress",
              "type": "address"
            },
            {
              "internalType": "uint256",
              "name": "tokenId",
              "type": "uint256"
            },
            {
              "internalType": "address payable",
              "name": "creator",
              "type": "address"
            },
            {
              "internalType": "address payable",
              "name": "seller",
              "type": "address"
            },
            {
              "internalType": "address payable",
              "name": "owner",
              "type": "address"
            },
            {
              "internalType": "uint256",
              "name": "price",
              "type": "uint256"
            },
            {
              "internalType": "string",
              "name": "name",
              "type": "string"
            },
            {
              "internalType": "string",
              "name": "description",
              "type": "string"
            },
            {
              "internalType": "bool",
              "name": "sold",
              "type": "bool"
            },
            {
              "internalType": "bool",
              "name": "canceled",
              "type": "bool"
            }
          ],
          "internalType": "struct Marketplace.MarketItem[]",
          "name": "",
          "type": "tuple[]"
        }
      ],
      "stateMutability": "view",
      "type": "function"
    },
    {
      "inputs": [],
      "name": "fetchOwnedMarketItems",
      "outputs": [
        {
          "components": [
            {
              "internalType": "uint256",
              "name": "marketItemId",
              "type": "uint256"
            },
            {
              "internalType": "address",
              "name": "nftContractAddress",
              "type": "address"
            },
            {
              "internalType": "uint256",
              "name": "tokenId",
              "type": "uint256"
            },
            {
              "internalType": "address payable",
              "name": "creator",
              "type": "address"
            },
            {
              "internalType": "address payable",
              "name": "seller",
              "type": "address"
            },
            {
              "internalType": "address payable",
              "name": "owner",
              "type": "address"
            },
            {
              "internalType": "uint256",
              "name": "price",
              "type": "uint256"
            },
            {
              "internalType": "string",
              "name": "name",
              "type": "string"
            },
            {
              "internalType": "string",
              "name": "description",
              "type": "string"
            },
            {
              "internalType": "bool",
              "name": "sold",
              "type": "bool"
            },
            {
              "internalType": "bool",
              "name": "canceled",
              "type": "bool"
            }
          ],
          "internalType": "struct Marketplace.MarketItem[]",
          "name": "",
          "type": "tuple[]"
        }
      ],
      "stateMutability": "view",
      "type": "function"
    },
    {
      "inputs": [],
      "name": "fetchSellingMarketItems",
      "outputs": [
        {
          "components": [
            {
              "internalType": "uint256",
              "name": "marketItemId",
              "type": "uint256"
            },
            {
              "internalType": "address",
              "name": "nftContractAddress",
              "type": "address"
            },
            {
              "internalType": "uint256",
              "name": "tokenId",
              "type": "uint256"
            },
            {
              "internalType": "address payable",
              "name": "creator",
              "type": "address"
            },
            {
              "internalType": "address payable",
              "name": "seller",
              "type": "address"
            },
            {
              "internalType": "address payable",
              "name": "owner",
              "type": "address"
            },
            {
              "internalType": "uint256",
              "name": "price",
              "type": "uint256"
            },
            {
              "internalType": "string",
              "name": "name",
              "type": "string"
            },
            {
              "internalType": "string",
              "name": "description",
              "type": "string"
            },
            {
              "internalType": "bool",
              "name": "sold",
              "type": "bool"
            },
            {
              "internalType": "bool",
              "name": "canceled",
              "type": "bool"
            }
          ],
          "internalType": "struct Marketplace.MarketItem[]",
          "name": "",
          "type": "tuple[]"
        }
      ],
      "stateMutability": "view",
      "type": "function"
    },
    {
      "inputs": [
        {
          "internalType": "uint256",
          "name": "tokenId",
          "type": "uint256"
        }
      ],
      "name": "getLatestMarketItemByTokenId",
      "outputs": [
        {
          "components": [
            {
              "internalType": "uint256",
              "name": "marketItemId",
              "type": "uint256"
            },
            {
              "internalType": "address",
              "name": "nftContractAddress",
              "type": "address"
            },
            {
              "internalType": "uint256",
              "name": "tokenId",
              "type": "uint256"
            },
            {
              "internalType": "address payable",
              "name": "creator",
              "type": "address"
            },
            {
              "internalType": "address payable",
              "name": "seller",
              "type": "address"
            },
            {
              "internalType": "address payable",
              "name": "owner",
              "type": "address"
            },
            {
              "internalType": "uint256",
              "name": "price",
              "type": "uint256"
            },
            {
              "internalType": "string",
              "name": "name",
              "type": "string"
            },
            {
              "internalType": "string",
              "name": "description",
              "type": "string"
            },
            {
              "internalType": "bool",
              "name": "sold",
              "type": "bool"
            },
            {
              "internalType": "bool",
              "name": "canceled",
              "type": "bool"
            }
          ],
          "internalType": "struct Marketplace.MarketItem",
          "name": "",
          "type": "tuple"
        },
        {
          "internalType": "bool",
          "name": "",
          "type": "bool"
        }
      ],
      "stateMutability": "view",
      "type": "function"
    },
    {
      "inputs": [],
      "name": "getListingFee",
      "outputs": [
        {
          "internalType": "uint256",
          "name": "",
          "type": "uint256"
        }
      ],
      "stateMutability": "view",
      "type": "function"
    }
  ],
  "bytecode": "0x6080604052669fdf42f6e4800060055534801561001b57600080fd5b506001600055600480546001600160a01b03191633179055611e52806100426000396000f3fe6080604052600436106100865760003560e01c80636f9b4920116100595780636f9b492014610101578063a21183651461012f578063b3e3c42f14610144578063b8fe6abe14610157578063cd90fdf41461016c57600080fd5b80630203c8231461008b5780630e01c969146100b65780634cf2a069146100cb5780634fda3cd6146100e0575b600080fd5b34801561009757600080fd5b506100a061018c565b6040516100ad9190611c0b565b60405180910390f35b3480156100c257600080fd5b506100a06101b9565b3480156100d757600080fd5b506100a06104b0565b6100f36100ee366004611906565b6104d9565b6040519081526020016100ad565b34801561010d57600080fd5b5061012161011c366004611a2f565b610964565b6040516100ad929190611ce8565b61014261013d3660046118c6565b610b7f565b005b6101426101523660046119a9565b610d77565b34801561016357600080fd5b506005546100f3565b34801561017857600080fd5b506100a06101873660046119f4565b610f0a565b60606101b46040518060400160405280600581526020016437bbb732b960d91b815250610f0a565b905090565b606060006101c660015490565b905060006101d360025490565b905060006101e060035490565b90506000816101ef8486611d24565b6101f99190611d24565b905060008167ffffffffffffffff81111561022457634e487b7160e01b600052604160045260246000fd5b60405190808252806020026020018201604052801561025d57816020015b61024a61172f565b8152602001906001900390816102425790505b5090506000805b868110156104a457600060068161027c846001611d0c565b815260208082019290925260409081016000208151610160810183528154815260018201546001600160a01b0390811694820194909452600282015492810192909252600381015483166060830152600481015483166080830152600581015490921660a0820152600682015460c082015260078201805491929160e08401919061030690611d82565b80601f016020809104026020016040519081016040528092919081815260200182805461033290611d82565b801561037f5780601f106103545761010080835404028352916020019161037f565b820191906000526020600020905b81548152906001019060200180831161036257829003601f168201915b5050505050815260200160088201805461039890611d82565b80601f01602080910402602001604051908101604052809291908181526020018280546103c490611d82565b80156104115780601f106103e657610100808354040283529160200191610411565b820191906000526020600020905b8154815290600101906020018083116103f457829003601f168201915b50505091835250506009919091015460ff8082161515602084015261010090910416151560409091015260a08101519091506001600160a01b0316156104575750610492565b8084848151811061047857634e487b7160e01b600052603260045260246000fd5b602090810291909101015261048e600184611d0c565b9250505b8061049c81611dbd565b915050610264565b50909695505050505050565b60606101b46040518060400160405280600681526020016539b2b63632b960d11b815250610f0a565b6000600260005414156105075760405162461bcd60e51b81526004016104fe90611cb1565b60405180910390fd5b6002600055836105595760405162461bcd60e51b815260206004820152601c60248201527f5072696365206d757374206265206174206c656173742031207765690000000060448201526064016104fe565b60055486146105b65760405162461bcd60e51b8152602060048201526024808201527f5072696365206d75737420626520657175616c20746f206c697374696e6720706044820152637269636560e01b60648201526084016104fe565b6105c4600180546001019055565b60006105cf60015490565b60405163867d339760e01b8152600481018890529091506000906001600160a01b038b169063867d33979060240160206040518083038186803b15801561061557600080fd5b505afa158015610629573d6000803e3d6000fd5b505050506040513d601f19601f8201168201806040525081019061064d91906118aa565b90506040518061016001604052808381526020018b6001600160a01b03168152602001888152602001826001600160a01b03168152602001336001600160a01b0316815260200160006001600160a01b0316815260200187815260200186815260200185815260200160001515815260200160001515815250600660008481526020019081526020016000206000820151816000015560208201518160010160006101000a8154816001600160a01b0302191690836001600160a01b031602179055506040820151816002015560608201518160030160006101000a8154816001600160a01b0302191690836001600160a01b0316021790555060808201518160040160006101000a8154816001600160a01b0302191690836001600160a01b0316021790555060a08201518160050160006101000a8154816001600160a01b0302191690836001600160a01b0316021790555060c0820151816006015560e08201518160070190805190602001906107c792919061178a565b5061010082015180516107e491600884019160209091019061178a565b50610120820151600990910180546101409093015115156101000261ff00199215159290921661ffff19909316929092171790556005546040516323b872dd60e01b81526001600160a01b038b16916323b872dd9161084a913391309190600401611be7565b602060405180830381600087803b15801561086457600080fd5b505af1158015610878573d6000803e3d6000fd5b505050506040513d601f19601f8201168201806040525081019061089c91906119d4565b506040516323b872dd60e01b81526001600160a01b038b16906323b872dd906108cd90339030908c90600401611be7565b600060405180830381600087803b1580156108e757600080fd5b505af11580156108fb573d6000803e3d6000fd5b50505050868a6001600160a01b0316837f70453e98399692023a6d92a562df753297f740d324bae0120ad8806fd4466480843360008c8c8c60008060405161094a989796959493929190611b7a565b60405180910390a450600160005598975050505050505050565b61096c61172f565b60008061097860015490565b9050805b8015610b6b5760008181526006602081815260408084208151610160810183528154815260018201546001600160a01b0390811694820194909452600282015492810192909252600381015483166060830152600481015483166080830152600581015490921660a08201529181015460c083015260078101805460e084019190610a0690611d82565b80601f0160208091040260200160405190810160405280929190818152602001828054610a3290611d82565b8015610a7f5780601f10610a5457610100808354040283529160200191610a7f565b820191906000526020600020905b815481529060010190602001808311610a6257829003601f168201915b50505050508152602001600882018054610a9890611d82565b80601f0160208091040260200160405190810160405280929190818152602001828054610ac490611d82565b8015610b115780601f10610ae657610100808354040283529160200191610b11565b820191906000526020600020905b815481529060010190602001808311610af457829003601f168201915b50505091835250506009919091015460ff808216151560208401526101009091041615156040918201528101519091508614610b4d5750610b59565b95600195509350505050565b80610b6381611d6b565b91505061097c565b50610b7461172f565b946000945092505050565b60026000541415610ba25760405162461bcd60e51b81526004016104fe90611cb1565b600260008181558281526006602081905260409182902090810154928101546005820180546001600160a01b0319163390811790915560098301805460ff1916600117905560049283015493516323b872dd60e01b815291936001600160a01b03888116946323b872dd94610c1e949390921691889101611be7565b602060405180830381600087803b158015610c3857600080fd5b505af1158015610c4c573d6000803e3d6000fd5b505050506040513d601f19601f82011682018060405250810190610c7091906119d4565b506040516323b872dd60e01b81526001600160a01b038616906323b872dd90610ca190309033908690600401611be7565b600060405180830381600087803b158015610cbb57600080fd5b505af1158015610ccf573d6000803e3d6000fd5b50505050610ce1600280546001019055565b6004805460055460405163a9059cbb60e01b81526001600160a01b0392831693810193909352602483015285169063a9059cbb90604401602060405180830381600087803b158015610d3257600080fd5b505af1158015610d46573d6000803e3d6000fd5b505050506040513d601f19601f82011682018060405250810190610d6a91906119d4565b5050600160005550505050565b60026000541415610d9a5760405162461bcd60e51b81526004016104fe90611cb1565b60026000818155828152600660205260409020015480610dfc5760405162461bcd60e51b815260206004820152601860248201527f4d61726b6574206974656d2068617320746f206578697374000000000000000060448201526064016104fe565b6000828152600660205260409020600401546001600160a01b03163314610e5e5760405162461bcd60e51b81526020600482015260166024820152752cb7ba9030b932903737ba103a34329039b2b63632b960511b60448201526064016104fe565b6040516323b872dd60e01b81526001600160a01b038416906323b872dd90610e8e90309033908690600401611be7565b600060405180830381600087803b158015610ea857600080fd5b505af1158015610ebc573d6000803e3d6000fd5b50505060008381526006602052604090206005810180546001600160a01b03191633179055600901805461ff00191661010017905550610f00600380546001019055565b5050600160005550565b6060610f34826040518060400160405280600681526020016539b2b63632b960d11b815250611620565b80610f615750610f61826040518060400160405280600581526020016437bbb732b960d91b815250611620565b610f7d5760405162461bcd60e51b81526004016104fe90611c6c565b6000610f8860015490565b905060008060005b838110156111b3576000600681610fa8846001611d0c565b8152602080820192909252604090810160009081208251610160810184528154815260018201546001600160a01b0390811695820195909552600282015493810193909352600381015484166060840152600481015484166080840152600581015490931660a0830152600683015460c083015260078301805493945090926111789291859160e08401919061103d90611d82565b80601f016020809104026020016040519081016040528092919081815260200182805461106990611d82565b80156110b65780601f1061108b576101008083540402835291602001916110b6565b820191906000526020600020905b81548152906001019060200180831161109957829003601f168201915b505050505081526020016008820180546110cf90611d82565b80601f01602080910402602001604051908101604052809291908181526020018280546110fb90611d82565b80156111485780601f1061111d57610100808354040283529160200191611148565b820191906000526020600020905b81548152906001019060200180831161112b57829003601f168201915b50505091835250506009919091015460ff8082161515602084015261010090910416151560409091015289611679565b90506001600160a01b03811633146111915750506111a1565b61119c600186611d0c565b945050505b806111ab81611dbd565b915050610f90565b5060008267ffffffffffffffff8111156111dd57634e487b7160e01b600052604160045260246000fd5b60405190808252806020026020018201604052801561121657816020015b61120361172f565b8152602001906001900390816111fb5790505b50905060005b84811015611616576000600681611234846001611d0c565b8152602080820192909252604090810160009081208251610160810184528154815260018201546001600160a01b0390811695820195909552600282015493810193909352600381015484166060840152600481015484166080840152600581015490931660a0830152600683015460c083015260078301805493945090926114049291859160e0840191906112c990611d82565b80601f01602080910402602001604051908101604052809291908181526020018280546112f590611d82565b80156113425780601f1061131757610100808354040283529160200191611342565b820191906000526020600020905b81548152906001019060200180831161132557829003601f168201915b5050505050815260200160088201805461135b90611d82565b80601f016020809104026020016040519081016040528092919081815260200182805461138790611d82565b80156113d45780601f106113a9576101008083540402835291602001916113d4565b820191906000526020600020905b8154815290600101906020018083116113b757829003601f168201915b50505091835250506009919091015460ff808216151560208401526101009091041615156040909101528a611679565b90506001600160a01b038116331461141d575050611604565b60408051610160810182528354815260018401546001600160a01b039081166020830152600285015492820192909252600384015482166060820152600484015482166080820152600584015490911660a0820152600683015460c0820152600783018054849160e084019161149290611d82565b80601f01602080910402602001604051908101604052809291908181526020018280546114be90611d82565b801561150b5780601f106114e05761010080835404028352916020019161150b565b820191906000526020600020905b8154815290600101906020018083116114ee57829003601f168201915b5050505050815260200160088201805461152490611d82565b80601f016020809104026020016040519081016040528092919081815260200182805461155090611d82565b801561159d5780601f106115725761010080835404028352916020019161159d565b820191906000526020600020905b81548152906001019060200180831161158057829003601f168201915b50505091835250506009919091015460ff8082161515602084015261010090910416151560409091015284518590879081106115e957634e487b7160e01b600052603260045260246000fd5b60209081029190910101526115ff600186611d0c565b945050505b8061160e81611dbd565b91505061121c565b5095945050505050565b6000816040516020016116339190611b5e565b604051602081830303815290604052805190602001208360405160200161165a9190611b5e565b6040516020818303038152906040528051906020012014905092915050565b60006116a3826040518060400160405280600681526020016539b2b63632b960d11b815250611620565b806116d057506116d0826040518060400160405280600581526020016437bbb732b960d91b815250611620565b6116ec5760405162461bcd60e51b81526004016104fe90611c6c565b611714826040518060400160405280600681526020016539b2b63632b960d11b815250611620565b611722578260a00151611728565b82608001515b9392505050565b604080516101608101825260008082526020820181905291810182905260608082018390526080820183905260a0820183905260c0820183905260e08201819052610100820152610120810182905261014081019190915290565b82805461179690611d82565b90600052602060002090601f0160209004810192826117b857600085556117fe565b82601f106117d157805160ff19168380011785556117fe565b828001600101855582156117fe579182015b828111156117fe5782518255916020019190600101906117e3565b5061180a92915061180e565b5090565b5b8082111561180a576000815560010161180f565b600082601f830112611833578081fd5b813567ffffffffffffffff8082111561184e5761184e611dee565b604051601f8301601f19908116603f0116810190828211818310171561187657611876611dee565b8160405283815286602085880101111561188e578485fd5b8360208701602083013792830160200193909352509392505050565b6000602082840312156118bb578081fd5b815161172881611e04565b6000806000606084860312156118da578182fd5b83356118e581611e04565b925060208401356118f581611e04565b929592945050506040919091013590565b600080600080600080600060e0888a031215611920578283fd5b873561192b81611e04565b9650602088013561193b81611e04565b955060408801359450606088013593506080880135925060a088013567ffffffffffffffff8082111561196c578384fd5b6119788b838c01611823565b935060c08a013591508082111561198d578283fd5b5061199a8a828b01611823565b91505092959891949750929550565b600080604083850312156119bb578182fd5b82356119c681611e04565b946020939093013593505050565b6000602082840312156119e5578081fd5b81518015158114611728578182fd5b600060208284031215611a05578081fd5b813567ffffffffffffffff811115611a1b578182fd5b611a2784828501611823565b949350505050565b600060208284031215611a40578081fd5b5035919050565b60008151808452611a5f816020860160208601611d3b565b601f01601f19169290920160200192915050565b6000610160825184526020830151611a9660208601826001600160a01b03169052565b50604083015160408501526060830151611abb60608601826001600160a01b03169052565b506080830151611ad660808601826001600160a01b03169052565b5060a0830151611af160a08601826001600160a01b03169052565b5060c083015160c085015260e08301518160e0860152611b1382860182611a47565b9150506101008084015185830382870152611b2e8382611a47565b9250505061012080840151611b468287018215159052565b50506101409283015115159390920192909252919050565b60008251611b70818460208701611d3b565b9190910192915050565b6001600160a01b0389811682528881166020830152871660408201526060810186905261010060808201819052600090611bb683820188611a47565b905082810360a0840152611bca8187611a47565b94151560c0840152505090151560e0909101529695505050505050565b6001600160a01b039384168152919092166020820152604081019190915260600190565b6000602080830181845280855180835260408601915060408160051b8701019250838701855b82811015611c5f57603f19888603018452611c4d858351611a73565b94509285019290850190600101611c31565b5092979650505050505050565b60208082526025908201527f506172616d65746572206d757374206265202773656c6c657227206f7220276f604082015264776e65722760d81b606082015260800190565b6020808252601f908201527f5265656e7472616e637947756172643a207265656e7472616e742063616c6c00604082015260600190565b604081526000611cfb6040830185611a73565b905082151560208301529392505050565b60008219821115611d1f57611d1f611dd8565b500190565b600082821015611d3657611d36611dd8565b500390565b60005b83811015611d56578181015183820152602001611d3e565b83811115611d65576000848401525b50505050565b600081611d7a57611d7a611dd8565b506000190190565b600181811c90821680611d9657607f821691505b60208210811415611db757634e487b7160e01b600052602260045260246000fd5b50919050565b6000600019821415611dd157611dd1611dd8565b5060010190565b634e487b7160e01b600052601160045260246000fd5b634e487b7160e01b600052604160045260246000fd5b6001600160a01b0381168114611e1957600080fd5b5056fea2646970667358221220b30b482a9f06824ded5429e0694fe4a6f853455b6a35088bd5708c52a8f1518c64736f6c63430008040033",
  "linkReferences": {},
  "deployedLinkReferences": {}
}